:020000040800F2
:1000000088060020D1010008A1020008A302000810
:10001000A7020008AB020008AF02000800000000C1
:10002000000000000000000000000000B302000813
:10003000B502000800000000B7020008B90200087D
:10004000EB010008EB010008EB010008EB010008E0
:10005000EB010008EB010008EB010008EB010008D0
:10006000EB010008EB010008EB010008EB010008C0
:10007000EB010008EB010008EB010008EB010008B0
:10008000EB010008EB010008EB010008EB010008A0
:10009000EB010008EB010008EB010008EB01000890
:1000A000EB010008EB010008EB010008EB01000880
:1000B000EB010008EB010008EB010008EB01000870
:1000C000EB010008EB010008EB010008EB01000860
:1000D000EB010008EB010008EB010008EB01000850
:1000E000EB010008EB010008EB010008EB01000840
:1000F000EB010008EB010008EB010008EB01000830
:10010000EB010008EB010008EB010008EB0100081F
:10011000EB010008EB010008EB010008EB0100080F
:10012000EB010008EB010008EB010008EB010008FF
:1001300000F002F800F03CF80AA090E8000C8244BD
:100140008344AAF10107DA4501D100F031F8AFF29A
:10015000090EBAE80F0013F0010F18BFFB1A43F0A5
:10016000010318478C080000AC080000103A24BFB7
:1001700078C878C1FAD8520724BF30C830C144BF0C
:1001800004680C607047000000230024002500264E
:10019000103A28BF78C1FBD8520728BF30C148BFEA
:1001A0000B6070471FB500F01CFC1FBD10B510BDE3
:1001B00000F0DBFB1146FFF7F5FF00F029F800F037
:1001C000F9FB03B4FFF7F2FF03BC00F003FC0000EF
:1001D0000948804709480047FEE7FEE7FEE7FEE7DB
:1001E000FEE7FEE7FEE7FEE7FEE7FEE70448054917
:1001F000054A064B704700006508000831010008F9
:100200008800002088060020880200208802002044
:1002100088B01CA30FCBCDE90623CDE904011DA2B4
:10022000D2E900109268CDE90202019100F05DF878
:1002300000F051F800F0BCF822E000240AE004A825
:10024000025D2146002000F09CF84FF4AA7000F0F7
:1002500035F8641C0F2CF2DB09240BE001A8025DC9
:10026000C4F10901012000F08CF84FF4AA7000F0ED
:1002700025F8641E002CF1DA41F2883000F01EF8F7
:10028000DBE7000054656D703A3031323334353677
:1002900037383900303132333435363738390000A9
:1002A000704700BFFEE700BFFEE700BFFEE700BFEC
:1002B000FEE77047704770477047000006E00A226B
:1002C00000BF1100A2F101035AB2FAD10100A0F15E
:1002D0000100F4D170474FF0333042490860424981
:1002E000C1F8040841490860704710B50121402059
:1002F00000F0E9F90121202000F0E5F910BD10B56A
:10030000044604203A4908604FF010003649C1F80D
:1003100014084FF04000C1F814080846C0F80C4417
:100320004FF4AA70FFF7CAFF4020324908604FF42B
:10033000AA70FFF7C3FF40202B49C1F8140810BD75
:1003400010B5044604202B4908604FF010002649E0
:10035000C1F814084FF04000C1F814080846C0F86E
:100360000C444FF4AA70FFF7A9FF40202149086010
:100370004FF4AA70FFF7A2FF40201B49C1F81408F0
:1003800010BD70B505460C46164645B904F180010E
:10039000C8B2FFF7B4FF3046FFF7D2FF07E004F121
:1003A000C001C8B2FFF7ABFF3046FFF7C9FF70BD11
:1003B00000B53820FFF7A3FF0620FFF77FFF0C20D2
:1003C000FFF79DFF0620FFF779FF0620FFF797FF55
:1003D0000620FFF773FF0120FFF791FF0620FFF7CC
:1003E0006DFF00BD001801400010014000140140E5
:1003F0001418014010180140DB48006840F001006B
:10040000D949086008464068D8490840D64948603C
:1004100008460068D6490840D34908600846006885
:1004200020F4802008600846406820F4FE00486000
:100430004FF41F0088607047CB49096821F4803170
:10044000C94A11601146096821F480211160B0F594
:10045000803F03D0B0F5802F0ED106E0C249096875
:1004600041F48031C04A116007E0BF49096841F496
:10047000A021BD4A116000E000BF00BF704710B569
:1004800001460022002300204A11012A02D1B64C65
:10049000236806E0022A02D1B34C236A01E0B24C81
:1004A000636A01F01F02012494401C4201D0012024
:1004B00000E0002010BD70B500240025002600BF1C
:1004C0003120FFF7DCFF0646641CB4F5A06F01D0B5
:1004D000002EF5D03120FFF7D2FF08B1012500E052
:1004E0000025284670BD014600209F4A106820F074
:1004F000F80040EAC100106070479E4908607047EC
:1005000002460020984B586820F47C1042EA010310
:100510001843954B586070479649086670470146E6
:100520000020914A506820F0030008435060704753
:100530008D48406800F00C007047014600208A4A50
:10054000506820F0F00008435060704701460020DA
:10055000854A506820F4E0600843506070470146C7
:100560000020814A506820F4605040EAC100506089
:10057000704729B17C4A527A02437B4B5A7206E09B
:10058000794A527AC343DBB21A40774B5A727047AA
:1005900079490860704701460020734A506820F48A
:1005A00040400843506070470021744A11706E4A01
:1005B00082F82010012802D0042808D103E001218C
:1005C0006E4A117004E005216C4A117000E000BF12
:1005D00000BF70476A49086070476349096A014370
:1005E000614A1162704767490860704730B5002161
:1005F0000022002400235C4D6D6805F00C0121B140
:10060000042905D0082923D105E05F4D056022E0CB
:100610005D4D05601FE0544D6D6805F47012524D3C
:100620006D6805F48034022505EB92421CB9574DE4
:10063000554305600BE04C4D6D6815F4003F03D049
:10064000524D5543056002E04F4D5543056002E0B1
:100650004D4D056000BF00BF434D6D6805F0F001D2
:1006600009094B4D6B5C0568DD4045603E4D6D688A
:1006700005F4E061090A464D6B5C4568DD40856024
:10068000394D6D6805F46051C90A414D6B5C456890
:10069000DD40C560344D6D6805F44041890B3D4D2A
:1006A0006B5CC568B5FBF3F5056130BD29B12E4A19
:1006B000526902432C4B5A6104E02B4A526982432F
:1006C000294B5A61704729B1274A92690243264B48
:1006D0009A6104E0244A92698243234B9A617047ED
:1006E00029B1214AD26902431F4BDA6104E01E4A54
:1006F000D26982431C4BDA61704729B11A4AD26829
:100700000243194BDA6004E0174AD2688243164B61
:10071000DA60704729B1144A12690243124B1A6118
:1007200004E0114A126982430F4B1A6170471A495B
:10073000086070470F49C86470470B49C87170471B
:100740000948406A40F08070074948627047014696
:100750000020054A92680A4201D0012000E00020F2
:100760007047014988727047001002400000FFF88E
:10077000FFFFF6FE00004242D80042422010024035
:10078000800442423C04424200127A0000093D00CB
:100790000000002010000020400442420021002000
:1007A000674A126842F48032654B1A6000BF644A9F
:1007B000126802F40030491C10B9B1F5A06FF6D1EF
:1007C0005F4A126812F4003F01D0012000E00020CF
:1007D000012842D15B4A126842F01002594B1A605C
:1007E0001A46126822F003021A601A46126842F092
:1007F00002021A60524A5268514B5A601A465268B5
:100800005A601A46526842F480625A601A46526828
:1008100022F47C125A601A46526842F4E8125A6076
:100820001A46126842F080721A6000BF444A126889
:1008300012F0007FFAD0424A526822F00302404B85
:100840005A601A46526842F002025A6000BF3C4A9F
:10085000526802F00C02082AF9D1704710B5FFF770
:100860009DFF10BD10B53648006840F001003449C6
:1008700008600846406834490840314948600846E5
:100880000068324908402E4908600846006820F494
:10089000802008600846406820F4FE0048604FF45D
:1008A0001F008860FFF7DAFF4FF0006028490860FA
:1008B00010BD10B5002100200022214B5B6803F021
:1008C0000C0121B1042906D0082928D107E0214BC9
:1008D000214C236027E01F4B1F4C236023E0184B63
:1008E0005B6803F47010164B5B6803F480320223DC
:1008F00003EB904022B9194B4343174C23600DE0A2
:100900000F4B5B6813F4003F04D0144B4343124C6D
:10091000236003E00F4B43430F4C236003E00D4B78
:100920000D4C236000BF00BF054B5B68C3F303138E
:100930000B4CE15C084B1B68CB40074C236010BD9F
:1009400000100240002002400000FFF8FFFFF6FE0A
:1009500008ED00E000127A001400002000093D00BC
:1009600018000020704770477047754600F028F85F
:10097000AE4605006946534620F00700854618B08C
:1009800020B5FFF733FCBDE820404FF000064FF0E4
:1009900000074FF000084FF0000B21F00701AC46B4
:1009A000ACE8C009ACE8C009ACE8C009ACE8C009D3
:1009B0008D4670470446AFF300802046FFF701FCE8
:1009C000004870472800002001487047704700BF6A
:1009D0002C00002001491820ABBEFEE726000200D3
:1009E000704710B5FFF7F0FF4FF00001016010BD38
:1009F000100A000800000020280000006C01000818
:100A0000380A00082800002060060000880100085D
:100A100000000000010203040102030406070809A4
:100A20000204060800A24A040000000000000000C2
:080A3000010203040607080996
:0400000508000131BD
:00000001FF
